:030000000200AD4E
:0C00AD00787FE4F6D8FD75811A0200F49B
:10028400040800000000040F00000000010E00013B
:020294000D005B
:03000B0002025896
:10025800C0E0C0D0E50EC394325002050E758CFC88
:08026800758A67D0D0D0E032A6
:0300030002000EEA
:10000E00C0E0C0D075D000C000C001C004C005C0A3
:10001E0006C007850E0C750E00758CFC758A67057B
:10002E000DE50CC394324011750DFE750B00750A6B
:10003E00007509007508008055C3E50D6480948035
:10004E004034E50D648094A0502CE50CC39402401E
:10005E003DE47F01FEFDFC741F950DF9F81201EDD4
:10006E00E50B4FF50BE50A4EF50AE5094DF509E5E9
:10007E00084CF5088018C3E50D648094A0400F85E8
:10008E000B12850A1185091085080F750D00D00712
:0F009E00D006D005D004D001D000D0D0D0E032B1
:10027000438901758CFC758A67D28CD2A9D288D249
:04028000A8D2AF222F
:10023A0085121A851119851018850F17E4F512F51C
:0D024A0011F510F50FAF1AAE19AD18AC1775
:010257002284
:10019600EFB40A00504D9001A3F82828730201C15C
:1001A6000201C50201C90201CD0201D10201D50237
:1001B60001D90201DD0201E10201E575803F2275E8
:1001C60080062275805B2275804F227580662275B7
:1001D600806D2275807D227580072275807F22754D
:0701E600806F22E4F5802286
:10013900C2B212027012023A8F168E158D148C13E8
:10014900120200018600FF10EF018200FF18E7018B
:100159008000FF30CF018800FF38C7018C00FF42C3
:10016900BD019100FF4AB5018A00FF5AA50184002B
:10017900FF7A850000013E800A800880068004809D
:0D018900028000E4F5A080ADE4F5A080A8A0
:1000B900020139E493A3F8E493A34003F68001F223
:1000C90008DFF48029E493A3F85407240CC8C33348
:1000D900C4540F4420C8834004F456800146F6DF17
:1000E900E4800B0102040810204080900284E47E21
:1000F900019360BCA3FF543F30E509541FFEE4930C
:10010900A360010ECF54C025E060A840B8E493A3D2
:10011900FAE493A3F8E493A3C8C582C8CAC583CAFD
:10012900F0A3C8C582C8CAC583CADFE9DEE780BEB5
:010296000067
:1001ED00E8600FEFC333FFEE33FEED33FDEC33FC70
:0301FD00D8F12214
:10020000D083D082E4937012740193700DA3A393F2
:10021000F8740193F5828883E4737402936C70120E
:100220007403936D700C7404936E70067405936F71
:0A02300060DDA3A3A3A3A3A380CA6B
:00000001FF
