:0300000002008378
:0C008300787FE4F6D8FD758107020003C9
:10006300E4FDFCC3ED9FEC9E5015E4FBFA0BBB00D3
:0F007300010AEB64784A70F50DBD00010C80E4C2
:01008200225B
:1000030075A0FF7F2C7E01120063C2A07F2C7E01AE
:10001300120063C2A1120063C2A2120063C2A31240
:100023000063C2A4120063C2A5120063C2A6120039
:1000330063C2A7120063D2A0120063D2A1120063AD
:10004300D2A2120063D2A3120063D2A4120063D21D
:10005300A5120063D2A6120063D2A712006380AA7E
:00000001FF
