:03000000020016E5
:0C001600787FE4F6D8FD75812F02005DB4
:10037A000B13C0F9A4B0999282F880907F02110001
:10038A000002080001021E000102200000022200F1
:0D039A0000022400000226000002280000DE
:04043800120136FF78
:10043C00EF75F00A84C454F0FEEF75F00A84E5F011
:03044C004EFF223E
:03044F001203FD98
:10045200EF5470C4540F75F00AA4FEEF540F2EFF30
:010462002277
:06041F00C2B5C2B6D2B561
:10042500E4FEC2B6EF1392B4EFC313FFD2B60EBE0D
:0204350008F0CD
:0104370022A2
:0F04630012041FAF05120425C2B5D2B4D2B622BF
:1003FD00E4FD12041FE4FFC2B6EDC313FD30B403D8
:10040D00430580D2B60FBF08EEC2B5D2B4D2B6AF97
:01041D0005D9
:01041E0022BB
:10021000E4FD7F8E12046312011DFF12043CAD0742
:100220007F8C120463900001120438AD077F8A129C
:100230000463900002120438AD077F8812046390B3
:100240000003120438AD077F861204639000041285
:100250000438AD077F84120463900005120438ADA2
:10026000077F82120463900006120438AD077F8076
:0A0270001204637D107F8E02046308
:10027A007F8D12044FEF1201637F8B12044F90009F
:10028A0001EF1201757F891203FD120452900002D8
:10029A00EF1201757F871203FD120452900003EFDB
:1002AA001201757F851203FD120452900004EF12A9
:1002BA0001757F831203FD120452900005EF1201AB
:1002CA00757F811203FD120452900006EF02017538
:0A03D30075F00A842413F8E6F580A3
:1003DD00E4FDFCC3ED9FEC9E5015E4FBFA0BBB0056
:0F03ED00010AEB640A4A70F50DBD00010C80E4B3
:0103FC0022DE
:06019700AB10AD0FAF0E2E
:06019D008F2E8D2FA90337
:1001A300900000E4F5A0E975F00A84741325F0F8D3
:1001B300E6F5807F017E001203DD75A004E91203DA
:1001C300D375A00875803F1203DD75A00CE52F756C
:1001D300F00A84741325F01203D975A010E52F12C9
:1001E30003D375A01475803F1203DD75A018E52EA7
:1001F30075F00A84741325F01203D975A01CE52E3B
:0C0203001203D3A3E582640A45837097C0
:01020F0022CC
:03000B000203A845
:1003A800C0E0C0D00512E51270020511C3943DE506
:1003B800119400401175110075120074019509F52A
:0B03C80009E49508F508D0D0D0E03221
:0300030002032DC8
:10032D00C0E0C0F0C083C082C0D075D000C000C096
:10033D0001C002C003C004C005C006C0071201976A
:10034D007524007525017526007527007528007523
:10035D002900D007D006D005D004D003D002D0019B
:0D036D00D000D0D0D082D083D0F0D0E032CC
:030013000202DA0C
:1002DA00C0E0C0F0C083C082C0D075D000C000C0EA
:1002EA0001C002C003C004C005C006C007AB0AAD06
:1002FA000CAF0D12019D7526007527017524007536
:10030A002500752800752900D007D006D005D0042D
:10031A00D003D002D001D000D0D0D082D083D0F088
:03032A00D0E032EE
:1000A200758901E4F58CF58AD2A9D2AFD28CD2AF90
:1000B200D2A8C288D2AAC28A7B007A00790A120226
:1000C2007A20B10F752800752901E4F524F525F58C
:1000D20026F527E525640145247009F528F529C28E
:1000E200A9120197E52764014526700FF528F52925
:1000F200C2A9AB0AAD0CAF0D12019DE52964014501
:100102002870B5D2A9E5094508600512019780A8B3
:0B011200AB0AAD0CAF0D12019D809DEB
:100022000200A2E493A3F8E493A34003F68001F252
:1000320008DFF48029E493A3F85407240CC8C333DF
:10004200C4540F4420C8834004F456800146F6DFAE
:10005200E4800B010204081020408090037AE47EC1
:10006200019360BCA3FF543F30E509541FFEE493A3
:10007200A360010ECF54C025E060A840B8E493A36A
:10008200FAE493A3F8E493A3C8C582C8CAC583CA95
:10009200F0A3C8C582C8CAC583CADFE9DEE780BE4D
:0103A7000055
:10011D00BB010689828A83E0225002E722BBFE02E0
:09012D00E32289828A83E4932213
:10013600BB010CE58229F582E5833AF583E022507E
:1001460006E92582F8E622BBFE06E92582F8E222C8
:0D015600E58229F582E5833AF583E49322E2
:10016300BB010689828A83F0225002F722BBFE017B
:02017300F32275
:10017500F8BB010DE58229F582E5833AF583E8F0C0
:10018500225006E92582C8F622BBFE05E92582C86C
:02019500F22254
:00000001FF
