:03000000020702F2
:0C070200787FE4F6D8FD758131020749CC
:10084500042000000000042900000000011D000133
:100855002400021E00000227000004190000000009
:100865000225000010080001000200030004000535
:0608750000060007000868
:0E092B0075B08FC2B6D2B5D2B4D2B6C2B52264
:06087C00D2B67F017E00F0
:10088200E4FDFCC3ED9FEC9E5015E4FBFA0BBB00AC
:0F089200010AEB64784A70F50DBD00010C80E49B
:0108A1002234
:0208E1008F3155
:1008E3007908E531C4131313540124FF92B4E5319D
:0B08F30025E0F531C2B612087CD9E701
:0108FE0022D7
:1008C2007908E4F531E53125E0F531D2B6C2B61248
:0E08D200087EA2B7E4334231D9EBAF317E008D
:0108E00022F5
:10080400900000E4FBFAC2B5EF44804DFF1208E10A
:100814001209391208C28E838F821208C2AA06AB4B
:1008240007D2B5E58242028A838B82E583C4F854F9
:10083400F0C868F583E582C4540F48F582AE83FF9F
:010844002291
:0B09390012087CC2B61208820208827D
:10078E00E4F530F52FF52EF52D7D04FF120804AC9F
:10079E0006AD07E412032A8F308E2F8D2E8C2D7B03
:1007AE00007A40799C78451201068F308E2F8D2E5F
:1007BE008C2D7B007AF0797F784512020F8F308E68
:1007CE002F8D2E8C2D7FA07E1A7DEF7C3EAB30AA16
:1007DE002FA92EA82D120106A804A905AA06AB075B
:1007EE007FCD7E6C7D997C431200118F308E2F8DC4
:0607FE002E8C2D020363A6
:1008A200E4FDFCC3ED9FEC9E5015E4FBFA0BBB008C
:0F08B200010AEB64784A70F50DBD00010C80E47B
:0108C1002214
:1006670075900F7F027E001208A2E590640F700359
:100677000206FB900000AF82EF2404FFF874010824
:100687008002C333D8FCF4F5907F017E001208A2E4
:10069700E4FDFCAF057E007401A807088005C3339D
:1006A700CE33CED8F9FFAB90EF5B7034AF057E0049
:1006B7007401A807088005C333CE33CED8F9FFAB42
:1006C70090EF5B60E775900FAF82EF75F008A42499
:1006D70008F8C374039D25E028F8E6FE08E6FF2224
:1006E7000DBD00010CED64044C70A8A3E582640203
:0A06F7004583708275900FE4FEFF4A
:0107010022D5
:03000B000208FFE9
:1008FF00C0E0C0D0E51DC394325002051D758CFCBD
:08090F00758A67D0D0D0E032F8
:030003000205C82B
:1005C800C0E0C0D075D000C000C001C004C005C0E4
:1005D80006C007851D18751D00758CFC758A670592
:1005E80024E518C3943240117524FE752300752242
:1005F800007521007520008055C3E524648094802F
:100608004034E524648094A0502CE518C39402403B
:100618003DE47F01FEFDFC741F9524F9F8120403E4
:10062800E5234FF523E5224EF522E5214DF521E599
:10063800204CF5208018C3E524648094A0400F85E1
:10064800232C85222B85212A852029752400D00773
:0F065800D006D005D004D001D000D0D0D0E032F1
:10091700438901758CFC758A67D28CD2A9D288D29B
:04092700A8D2AF2281
:100416001209171206678E1E8F1FE4FFFEFDFCAB46
:100426002CAA2BA92AA829C31203F27009E51F4595
:100436001E70030205807FCF7E307DFF7C00AB2CD3
:10044600AA2BA92AA829C31203F26008E51F640192
:10045600451E700975A01C75800602056E7FE77E35
:10046600187DFF7C00AB2CAA2BA92AA829C312034E
:10047600F26008E51F6402451E700975A0187580B4
:100486005B02056E7F857E7A7DFF7C00AB2CAA2BF6
:10049600A92AA829C31203F26008E51F6403451EB2
:1004A600700975A01475804F02056E7FEF7E107D72
:1004B600FF7C00AB2CAA2BA92AA829C31203F26041
:1004C60008E51F6404451E700975A0107580660254
:1004D600056E7FC77E387DFF7C00AB2CAA2BA92A30
:1004E600A829C31203F26008E51F6405451E7008BB
:1004F60075A00C75806D80707FA57E5A7DFF7C008F
:10050600AB2CAA2BA92AA829C31203F26008E51F5F
:100516006406451E700875A00875807D804A7FBDFB
:100526007E427DFF7C00AB2CAA2BA92AA829C312E8
:1005360003F26008E51F6407451E700875A0047580
:10054600800780247FB57E4A7DFF7C00AB2CAA2BDA
:10055600A92AA829C31203F26008E51F6408451EEC
:100566007006E4F5A075807FE4F52CF52BF52AF5E9
:1005760029F51EF51FF5277528017D047F20120831
:10058600048E258F26AC25AD26E412032A8F1C8EF9
:100596001B8D1A8C19E4FFFE7D487C42AB1CAA1BFE
:1005A600A91AA8191202AC500AE4F5A0F527F528F5
:1005B600020419E5284527600302041975A0FF0205
:0205C600041916
:10000E000203CFE86480F8E933E83360110460F04E
:10001E00ED33EC337009E8FCE9FDEAFEEBFF220458
:10002E0060DED3EB9FEA9EE99DE8C2E78CF0C2F753
:10003E0095F0400CE8CCF8E9CDF9EACEFAEBCFFB1F
:10004E0012039A85D0F05804700320D5B3E80470DB
:10005E00075002B2D50203D992D5EC0460F7E4CC76
:10006E00C0E0C398F8603B94186008400DD0E0FBE8
:10007E000203B1E4FBFAC9FC8028E830E406E4C9C7
:10008E00FBE4CAFCE830E305E4C9CACBFCE854073C
:10009E006010F8C3E913F9EA13FAEB13FBEC13FC47
:1000AE00D8F130F52FC3E49CFCEF9BFFEE9AFEEDEA
:1000BE0099FDD0E0FBEF4E4D4C701222DB03020394
:1000CE00D6EC2CFCEF33FFEE33FEED33FDED30E7D7
:1000DE00EB0203B1EF2BFFEE3AFEED39FDD0E0FB64
:1000EE0050130BBB00030203D9ED13FDEE13FEEF0D
:0800FE0013FFEC13FC0203B137
:10010600EC4D6011E8497017ED33EC3304600DE4F3
:10011600FCFFFEFD22E933E8330470F80203CF1238
:10012600039A58046009E4CC248150062850090239
:1001360003D92840030203D6C0E0EB4A7044B980D5
:1001460006D0E0FB0203C5EF4E701CBD8008EBFF36
:10015600EAFEE9FD80EBE98DF0A4FEE5F00201EF91
:10016600E9CDF9EAFEEBFFEF89F0A4FCE5F0CE89D4
:10017600F0A42EFFE435F0CD89F0A42DFEE435F091
:100186008067EF4E7005BD80D780C3EF8BF0A4ACBF
:10019600F0EE8BF0A42CFCE435F0F8EF8AF0A42CFA
:1001A600E5F038FCE433CB8DF0A42CFCE5F03BF80D
:1001B600EE8AF0A42CFCE5F038F8E433CF89F0A4FD
:1001C6002CFCE5F038CF3400CE89F0A42FFFE5F003
:1001D6003EFEE433C98DF0A42EFEE5F039CD8AF05B
:1001E600A42FFFE5F03EFEE43DFD33D0E0FB5007D3
:1001F6000BBB000F0203D9EC2CFCEF33FFEE33FEF2
:06020600ED33FD0203B11F
:10020C000203D9EC5D046005E8590470030203CFC6
:10021C0012039A580460F6EC4860F2EC7004FDFE90
:10022C00FF22C860DB2481C85009C39860025006C5
:10023C000203D69850CAF582E9294B4A7005AB8265
:10024C000203C575F0007C1A7880C3EF9BEE9AED23
:10025C0099400DC3EF9BFFEE9AFEED99FDE842F03D
:10026C00DC23ACF0D0E0FFD0E0FED0E0FDAB822090
:10027C00E7101BEB60BAEC2CFCEF33FFEE33FEED1A
:10028C0033FD0203B1E803F830E705C0F075F00068
:10029C00EF2FFFEE33FEED33FD40B830E7C280AAFE
:1002AC0074F8CC6480CCC86480C8F58204604FC3F9
:1002BC00EB9FF5F0EA9E42F0E99D42F0E89C45F098
:1002CC00603C501DE5825FFFE582D313CB5BCBF422
:1002DC002B5582FB50280ABA002409B9002008804B
:1002EC001DE5825BFBE582D313CF5FCFF4C3132FE5
:1002FC005582FF50090EBE00050DBD00010CC3EB6D
:10030C009FF5F0EA9E42F0E99D42F0E89C45F060D2
:09031C0007CC4820E701B3EC22F4
:1003250075F020800E75F010800575F0087D007E53
:10033500007F003392D530D5031203E4EC3340102F
:10034500EF33FFEE33FEED33FDEC33FCD5F0ED225C
:0E035500E5F0247EA2D513CC92E7CDCEFF2298
:10036300EDD2E7CD33EC3392D524814006E4FFFE92
:10037300FDFC22FCE4CFCECDCC24E0501174FF80F1
:10038300EDC3CC13CCCD13CDCE13CECF13CF04708E
:07039300F030D5DE0203E4A7
:10039A00E9D2E7C933E833F892D5EDD2E7CD33ECA9
:0703AA0033FC5002B2D52222
:1003B100EC30E7100FBF000C0EBE00080DBD0004AD
:1003C1000BEB6014A2D5EB13FCED92E7FD2274FF59
:1003D100FCFDFEFF22E480F8A2D574FF13FC7D80B2
:0303E100E480EFC6
:10070E00020416E493A3F8E493A34003F68001F2E7
:10071E0008DFF48029E493A3F85407240CC8C333EC
:10072E00C4540F4420C8834004F456800146F6DFBB
:10073E00E4800B0102040810204080900845E47EFE
:10074E00019360BCA3FF543F30E509541FFEE493B0
:10075E00A360010ECF54C025E060A840B8E493A377
:10076E00FAE493A3F8E493A3C8C582C8CAC583CAA2
:10077E00F0A3C8C582C8CAC583CADFE9DEE780BE5A
:01087B00007C
:0E03E400C3E49FFFE49EFEE49DFDE49CFC222A
:1003F200EB9FF5F0EA9E42F0E99D42F0E89C45F061
:0104020022D7
:10040300E8600FEFC333FFEE33FEED33FDEC33FC57
:03041300D8F122FB
:00000001FF
