:030000000200B14A
:0C00B100787FE4F6D8FD7581360200F877
:1003FF000B133F065B4F666D7D077F6F0002110089
:10040F000002080001021E0001022000000222006B
:0D041F000002240000022600000228000058
:040474001201D1FFA1
:10047800EF75F00A84C454F0FEEF75F00A84E5F0D5
:030488004EFF2202
:03048B0012038CCD
:10048E00EF5470C4540F75F00AA4FEEF540F2EFFF4
:01049E00223B
:0A04580075F00A842413F8E6F5801D
:10046200E4FDFCC3ED9FEC9E50070DBD00010C8026
:01047200F297
:010473002266
:10049F00E4FEC2B6EF1392B4EFC313FFD2B60EBE93
:0204AF0008F053
:0104B1002228
:1003CE00C2AFC2B5C2B6D2B5E4FEEF1392B4EFC35C
:1003DE0013FFD2B6C2B60EBE08F0E4FEED1392B411
:1003EE00EDC313FDD2B6C2B60EBE08F0C2B5D2AF83
:0103FE0022DC
:10038C00C2AFC2B5C2B6D2B5E4FDEF1392B4EFC39F
:10039C0013FFD2B6C2B60DBD08F0E4FDA2B4E4332F
:1003AC00FFC43333335480FCEEC3134CFED2B6C2BD
:1003BC00B60DBD08E7C2B5D2B6C2B4D2B4D2AFAF97
:0103CC00062A
:0103CD00220D
:10023200E4FD7F8E1203CE1201B8FF120478AD07DF
:100242007F8C1203CE900001120474AD077F8A12D4
:1002520003CE900002120474AD077F881203CE9081
:100262000003120474AD077F861203CE90000412BD
:100272000474AD077F841203CE900005120474AD9E
:10028200077F821203CE900006120474AD077F80AE
:0A0292001203CE7D107F8E0203CE12
:10029C007F8D12048BEF1201FE7F8B12048B90006A
:1002AC0001EF1202107F8912038C12048E9000024F
:1002BC00EF1202107F8712038C12048E900003EF52
:1002CC001202107F8512038C12048E900004EF1220
:1002DC0002107F8312038C12048E900005EF120221
:1002EC00107F8112038C12048E900006EF02021014
:06013D00AB0AAD0CAF0D92
:060143008F358D36A90383
:10014900E4FBFAE4F5A0E975F00A84741325F0F8E4
:10015900E6F5807F967E0012046275A004E9120418
:100169005875A00875804012046275A00CE53675B3
:10017900F00A84741325F012045E75A010E5361296
:10018900045875A01475804012046275A018E535ED
:1001990075F00A84741325F012045E75A01CE53508
:0E01A9001204580BBB00010AEB64014A70956A
:0101B7002225
:03000B0002042DBF
:10042D00C0E0C0D00512E51270020511C3943DE580
:10043D00119400401175110075120074019509F5A4
:0B044D0009E49508F508D0D0D0E0329B
:030003000202FCFA
:1002FC00C0E0C0F0C0D075D000C000C001C002C0CA
:10030C0003C004C005C006C007AB10AD0FAF0E1282
:10031C000143752400752500752600752701752885
:10032C0000752900D007D006D005D004D003D00228
:0B033C00D001D000D0D0D0F0D0E032D3
:030013000203479E
:10034700C0E0C0F0C0D075D000C000C001C002C07E
:1003570003C004C005C006C00712013D752600751D
:100367002700752400752500752800752901D00719
:10037700D006D005D004D003D002D001D000D0D011
:05038700D0F0D0E032CF
:10001600752A17752C0A752D02752E10752F23E477
:10002600F530FB7A00792A120232758901E4F58CE3
:10003600F58AD2A9D2AFD28CD2AFD2A8C288D2AA20
:10004600C28A7A00790A12029C752400752501E499
:10005600F526F527F528F5297B007A00790A12029C
:100066009C20B10F752400752501E4F526F527F5CA
:1000760028F529E525640145247010E50945086041
:10008600028010AB0AAD0CAF0D800EE5276401456A
:1000960026700BAB10AD0FAF0E12014380BAE529E7
:0B00A6006401452870B212013D80ADDE
:1000BD00020016E493A3F8E493A34003F68001F243
:1000CD0008DFF48029E493A3F85407240CC8C33344
:1000DD00C4540F4420C8834004F456800146F6DF13
:1000ED00E4800B01020408102040809003FFE47EA1
:1000FD00019360BCA3FF543F30E509541FFEE49308
:10010D00A360010ECF54C025E060A840B8E493A3CE
:10011D00FAE493A3F8E493A3C8C582C8CAC583CAF9
:10012D00F0A3C8C582C8CAC583CADFE9DEE780BEB1
:01042C0000CF
:1001B800BB010689828A83E0225002E722BBFE0245
:0901C800E32289828A83E4932278
:1001D100BB010CE58229F582E5833AF583E02250E3
:1001E10006E92582F8E622BBFE06E92582F8E2222D
:0D01F100E58229F582E5833AF583E4932247
:1001FE00BB010689828A83F0225002F722BBFE01E0
:02020E00F322D9
:10021000F8BB010DE58229F582E5833AF583E8F024
:10022000225006E92582C8F622BBFE05E92582C8D0
:02023000F222B8
:00000001FF
