:03000000020003F8
:0C000300787FE4F6D8FD75811702004AF2
:0C0119000A083F065B4F666D7D077F6F94
:1000F900E4FDFCC3ED9FEC9E5015E4FBFA0BBB003D
:0F010900010AEB64784A70F50DBD00010C80E42B
:0101180022C4
:10008F00E4F514F515E4F512F513E4F516F5177507
:10009F00A00474082515F8E6F5807F057E00120090
:1000AF00F9E4F5A074082513F8E6F5801200F905B8
:1000BF0017E51770020516C39414E5166480948033
:1000CF0040CD0513E51370020512D39409E51264B0
:1000DF0080948040B50515E51570020514D3940979
:0A00EF00E51464809480409D809623
:10000F0002008FE493A3F8E493A34003F68001F278
:10001F0008DFF48029E493A3F85407240CC8C333F2
:10002F00C4540F4420C8834004F456800146F6DFC1
:10003F00E4800B0102040810204080900119E47E37
:10004F00019360BCA3FF543F30E509541FFEE493B6
:10005F00A360010ECF54C025E060A840B8E493A37D
:10006F00FAE493A3F8E493A3C8C582C8CAC583CAA8
:10007F00F0A3C8C582C8CAC583CADFE9DEE780BE60
:0101250000D9
:00000001FF
