:03000000020003F8
:0C000300787FE4F6D8FD75811C02004AED
:0C0182000A133F065B4F666D7D077F6F20
:0A01580075F00A842413F8E6F58020
:10016200E4FDFCC3ED9FEC9E5015E4FBFA0BBB00D3
:0F017200010AEB64F04A70F50DBD00010C80E44A
:01018100225B
:06008F008F118D12A90380
:10009500900000E4F5A0E975F00A84741325F0F8E2
:1000A500E6F5807F017E0012016275A004E9120168
:1000B5005875A00875804012016275A00CE512758F
:1000C500F00A84741325F012015E75A010E5121272
:1000D500015875A01475804012016275A018E511CC
:1000E50075F00A84741325F012015E75A01CE511E4
:0C00F500120158A3E582643C458370971B
:0101010022DB
:10010200750800750904750A00750B23E4F50CF5F2
:100112000D050DE50D7002050C643C450C700CF5E7
:100122000CF50D050BE50B7002050AE50B643C4569
:100132000A700CF50AF50B0509E50970020508E5D8
:1001420009641845087004F508F509AF09AD0BAB51
:060152000D12008F80BBBE
:10000F00020102E493A3F8E493A34003F68001F204
:10001F0008DFF48029E493A3F85407240CC8C333F2
:10002F00C4540F4420C8834004F456800146F6DFC1
:10003F00E4800B0102040810204080900182E47ECE
:10004F00019360BCA3FF543F30E509541FFEE493B6
:10005F00A360010ECF54C025E060A840B8E493A37D
:10006F00FAE493A3F8E493A3C8C582C8CAC583CAA8
:10007F00F0A3C8C582C8CAC583CADFE9DEE780BE60
:01018E000070
:00000001FF
