:0300000002015C9E
:0C015C00787FE4F6D8FD7581440201A311
:08043A007FBFDFEFF7FBFDFEC1
:0F042A00010800010900013C02013201013B0001
:0403CE007F017E002D
:1003D200E4FDFCC3ED9FEC9E5015E4FBFA0BBB0061
:0F03E200010AEB64784A70F50DBD00010C80E450
:0103F10022E9
:1000030075900F1203CEE590640F70030200C59044
:100013000000AF82EF2404FFF87401088002C333A9
:10002300D8FCF4F5901203CEE4FDFCAF057E00741A
:1000330001A807088005C333CE33CED8F9FFAB90B0
:10004300EF5B7064AF057E007401A807088005C3E9
:1000530033CE33CED8F9FFAB90EF5B60E775900FEB
:10006300ED64024C700CE582640345837004FE7FEB
:100073000422ED64034C700CE58264024583700432
:10008300FE7F0322ED64014C700CE582640245831C
:100093007004FE7F0122ED64024C7029E582640145
:1000A30045837021FE7F02220DBD00010CED640427
:1000B3004C600302002EA3E58264044583600302BF
:0800C300001575900FE4FEFF2B
:0100CB002212
:1003A800C2B6C2B5E4FEEFC4131313540124FF927E
:1003B800B4EF25E0FFD2B60000C2B60EBE08E7D201
:0503C800B50000C2B504
:0103CD00220D
:1000CC00E4F544F9743329F8E4F6FFE53C14FEEF4B
:1000DC00D39E502A740A2FF8E6B5011F741E2FF810
:1000EC00E6FEC374079EFEF87401088002C333D881
:1000FC00FCF542743329F8E64542F60F80CDE5084D
:10010C00B5011AC374079509FFF87401088002C37E
:10011C0033D8FCF542743329F8E64542F609E96414
:10012C000870A1E4F9E4F543E4FF1203A8E5439059
:10013C00043A93F58074332543F8E6FF1203A812B2
:0F014C0003CE0543E543C3940840DD09B90AD645
:01015B002281
:1004110012035B7C007D081201E88D0812035B7CEE
:09042100007D081201E88D09229A
:10027300E53C14FFEFD39400401B74092FF8E6FE0E
:10028300740A2FF8A606741D2FF8E6FE741E2FF8C5
:10029300A6061F80DFE532B40114E53B6403600E5C
:1002A300753B01050AE50A6408704DF50A22E5323B
:1002B300B40214E53B6404600E753B02051EE51EA3
:1002C30064087034F51E22E532B40314E53B64017F
:1002D300600E753B03E50A7004750A0722150A22AE
:1002E300E532B40413E53B6402600D753B04E51E7F
:0802F3007004751E0722151EA0
:0102FB0022E0
:1003F2007F01EFC3953C5015740A2FF8E6B50A0A3F
:0E040200741E2FF8E6B51E02D3220F80E5C34C
:0104100022C9
:1002FC00750A01E4F51EF50BF51F754101740A250D
:10030C0041F8760A741E2541F8760A0541E541B498
:10031C0032EB120411120003EFD3940040028F321F
:10032C001202731203F24026E50AB5080DE51EB55C
:10033C000908120411053C120273E4F5411200CCB9
:0E034C000541E541C3940340F41203CE80C77F
:01035A002280
:100168000202FCE493A3F8E493A34003F68001F2AF
:1001780008DFF48029E493A3F85407240CC8C33398
:10018800C4540F4420C8834004F456800146F6DF67
:10019800E4800B010204081020408090042AE47EC9
:1001A800019360BCA3FF543F30E509541FFEE4935C
:1001B800A360010ECF54C025E060A840B8E493A323
:1001C800FAE493A3F8E493A3C8C582C8CAC583CA4E
:1001D800F0A3C8C582C8CAC583CADFE9DEE780BE06
:0104390000C2
:1001E800C2D5EC30E709B2D5E4C39DFDE49CFCEE32
:1001F80030E715B2D5E4C39FFFE49EFE12021EC38A
:10020800E49DFDE49CFC800312021E30D507C3E484
:060218009FFFE49EFE22A0
:10035B00AC3DAD3EAE3FAF407810EC4D4E4F700410
:10036B007CA57DA5C3EC13FCED13FDEE13FEEF1383
:10037B00FF5010EC64CCFCED644CFDEE644EFEEFD4
:10038B0064CEFFD8DF8C3D8D3E8E3F8F40EE547F89
:0D039B00FE228E3D8F3E74A5F53FF54022F9
:10021E00BC000BBE0029EF8DF084FFADF022E4CCC4
:10022E00F875F008EF2FFFEE33FEEC33FCEE9DEC8D
:10023E00984005FCEE9DFE0FD5F0E9E4CEFD22EDD3
:10024E00F8F5F0EE8420D21CFEADF075F008EF2F1D
:10025E00FFED33FD4007985006D5F0F222C398FD0E
:05026E000FD5F0EA22AB
:00000001FF
