:0300000002015C9E
:0C015C00787FE4F6D8FD7581450201A310
:080437007FBFDFEFF7FBFDFEC4
:0F042700010800010900013C02013201013B0103
:0403CB007F017E0030
:1003CF00E4FDFCC3ED9FEC9E5015E4FBFA0BBB0064
:0F03DF00010AEB64784A70F50DBD00010C80E453
:0103EE0022EC
:1000030075900F1203CBE590640F70030200C59047
:100013000000AF82EF2404FFF87401088002C333A9
:10002300D8FCF4F5901203CBE4FDFCAF057E00741D
:1000330001A807088005C333CE33CED8F9FFAB90B0
:10004300EF5B7064AF057E007401A807088005C3E9
:1000530033CE33CED8F9FFAB90EF5B60E775900FEB
:10006300ED64024C700CE582640345837004FE7FEB
:100073000422ED64034C700CE58264024583700432
:10008300FE7F0322ED64014C700CE582640245831C
:100093007004FE7F0122ED64024C7029E582640145
:1000A30045837021FE7F02220DBD00010CED640427
:1000B3004C600302002EA3E58264044583600302BF
:0800C300001575900FE4FEFF2B
:0100CB002212
:1003A500C2B6C2B5E4FEEFC4131313540124FF9281
:1003B500B4EF25E0FFD2B60000C2B60EBE08E7D204
:0503C500B50000C2B507
:0103CA002210
:1000CC00E4F541F9743329F8E4F6FFE53C14FEEF4E
:1000DC00D39E502A740A2FF8E6B5011F741E2FF810
:1000EC00E6FEC374079EFEF87401088002C333D881
:1000FC00FCF53F743329F8E6453FF60F80CDE50853
:10010C00B5011AC374079509FFF87401088002C37E
:10011C0033D8FCF53F743329F8E6453FF609E9641A
:10012C000870A1E4F9E4F540E4FF1203A5E5409062
:10013C00043793F58074332540F8E6FF1203A512BB
:0F014C0003CB0540E540C3940840DD09B90AD64E
:01015B002281
:10040E001203587C007D081201E88D081203587CF7
:09041E00007D081201E88D09229D
:1002F300E53C14FFEFD39400401B74092FF8E6FE8E
:10030300740A2FF8A606741D2FF8E6FE741E2FF844
:10031300A6061F80DFE532B4010B050AE50A64086F
:100323007032F50A22E532B4020B051EE51E64089D
:100333007022F51E22E532B4030BE50A7004750A38
:100343000722150A22E532B4040AE51E7004751E5D
:040353000722151E4A
:010357002283
:1003EF007F01EFC3953C5015740A2FF8E6B50A0A42
:0E03FF00741E2FF8E6B51E02D3220F80E5C350
:01040D0022CC
:10027300753E01750A01E4F51EF50BF51F753D0189
:10028300740A253DF8760A741E253DF8760A053D65
:10029300E53DB414EB12040E1200038F3EE53ED38A
:1002A3009400401DE53B2402FFE433FEEF653E70FE
:1002B30001EE600DE53B24FE653E6005853E3B8017
:1002C30003853B321202F31203EF4023E50AB5081C
:1002D3000DE51EB5090812040E053C1202F3E4F500
:0F02E3003DE53DC3940250B01200CC053D80F2C2
:0102F20022E9
:10016800020273E493A3F8E493A34003F68001F238
:1001780008DFF48029E493A3F85407240CC8C33398
:10018800C4540F4420C8834004F456800146F6DF67
:10019800E4800B0102040810204080900427E47ECC
:1001A800019360BCA3FF543F30E509541FFEE4935C
:1001B800A360010ECF54C025E060A840B8E493A323
:1001C800FAE493A3F8E493A3C8C582C8CAC583CA4E
:1001D800F0A3C8C582C8CAC583CADFE9DEE780BE06
:0104360000C5
:1001E800C2D5EC30E709B2D5E4C39DFDE49CFCEE32
:1001F80030E715B2D5E4C39FFFE49EFE12021EC38A
:10020800E49DFDE49CFC800312021E30D507C3E484
:060218009FFFE49EFE22A0
:10035800AC42AD43AE44AF457810EC4D4E4F7004FF
:100368007CA57DA5C3EC13FCED13FDEE13FEEF1386
:10037800FF5010EC64CCFCED644CFDEE644EFEEFD7
:1003880064CEFFD8DF8C428D438E448F45EE547F78
:0D039800FE228E428F4374A5F544F54522E8
:10021E00BC000BBE0029EF8DF084FFADF022E4CCC4
:10022E00F875F008EF2FFFEE33FEEC33FCEE9DEC8D
:10023E00984005FCEE9DFE0FD5F0E9E4CEFD22EDD3
:10024E00F8F5F0EE8420D21CFEADF075F008EF2F1D
:10025E00FFED33FD4007985006D5F0F222C398FD0E
:05026E000FD5F0EA22AB
:00000001FF
