:03000000020003F8
:0C000300787FE4F6D8FD75814E02004ABB
:10011A00204009000000000000000000000000006C
:10012A0000000000000000000000000000000000C5
:10013A0000000000000000000000000000000000B5
:10014A0000000000000000000000000000000000A5
:0C015A00000000014A01014901010800F9
:10024700E4FDFCC3ED9FEC9E5015E4FBFA0BBB00ED
:0F025700010AEB64784A70F50DBD00010C80E4DC
:010266002275
:1001EC00E4F9C2A2C2A3A8017401088002C333D8E7
:1001FC00FCF4F580D2A2D2A3E975F008A42409F886
:10020C00E6F580C2A47F017E00120247D2A409B990
:02021C0008D008
:01021E0022BD
:10027F001201677C007D4012008F8D0874092508DC
:04028F00F8760122DA
:1001B4007F3F74082FF8E6FE74092FF8A606DFF2D5
:1001C400E54924FE601314601214600D24037017B3
:1001D400E50925E054FEF509228009E509C3134425
:0701E40080F50922750900F6
:0101EB0022F1
:100267007F01EFC3954A500E74092FF8E6550960D0
:0702770002D3220F80ECC34B
:01027E00225D
:10021F0012027F1201B4120267401B74092508F8FD
:10022F00E65509600512027F054A1201EC7F647ED4
:08023F000012024780DD80FE81
:10000F0002021FE493A3F8E493A34003F68001F2E6
:10001F0008DFF48029E493A3F85407240CC8C333F2
:10002F00C4540F4420C8834004F456800146F6DFC1
:10003F00E4800B010204081020408090011AE47E36
:10004F00019360BCA3FF543F30E509541FFEE493B6
:10005F00A360010ECF54C025E060A840B8E493A37D
:10006F00FAE493A3F8E493A3C8C582C8CAC583CAA8
:10007F00F0A3C8C582C8CAC583CADFE9DEE780BE60
:010166000098
:10008F00C2D5EC30E709B2D5E4C39DFDE49CFCEE8C
:10009F0030E715B2D5E4C39FFFE49EFE1200C5C33F
:1000AF00E49DFDE49CFC80031200C530D507C3E43A
:0600BF009FFFE49EFE22FB
:10016700AC4BAD4CAE4DAF4E7810EC4D4E4F7004CE
:100177007CA57DA5C3EC13FCED13FDEE13FEEF1379
:10018700FF5010EC64CCFCED644CFDEE644EFEEFCA
:1001970064CEFFD8DF8C4B8D4C8E4D8F4EEE547F47
:0D01A700FE228E4B8F4C74A5F54DF54E22B7
:1000C500BC000BBE0029EF8DF084FFADF022E4CC1F
:1000D500F875F008EF2FFFEE33FEEC33FCEE9DECE8
:1000E500984005FCEE9DFE0FD5F0E9E4CEFD22ED2E
:1000F500F8F5F0EE8420D21CFEADF075F008EF2F78
:10010500FFED33FD4007985006D5F0F222C398FD68
:050115000FD5F0EA2205
:00000001FF
