:0300000002010CEE
:0C010C00787FE4F6D8FD758142020153B3
:1003B5000B133F065B4F666D7D077F6F00021100D3
:1003C5000002080001021E000102200000022200B6
:0D03D50000022400000226000002280000A3
:10048700EF75F00A84C454F0FEEF75F00A84E5F0C6
:030497004EFF22F3
:0304730012043838
:10047600EF5470C4540F75F00AA4FEEF540F2EFF0C
:010486002253
:06045A00C2B5C2B6D2B526
:10046000E4FEC2B6EF1392B4EFC313FFD2B60EBED2
:0204700008F092
:010472002267
:0F049A0012045AAF05120460C2B5D2B4D2B62212
:10043800E4FD12045AE4FFC2B6EDC313FD30B40361
:10044800430580D2B60FBF08EEC2B5D2B4D2B6AF5C
:01045800059E
:010459002280
:10020B00E4FD7F8E12049AAF38120487AD077F8C02
:10021B0012049AAF39120487AD077F8A12049AAF82
:10022B003A120487AD077F8812049AAF3B120487FA
:10023B00AD077F8612049AAF3C120487AD077F840B
:10024B0012049AAF3D120487AD077F8212049AAF56
:10025B003E120487AD077F8012049A7D107F8E02B9
:02026B00049AF3
:100374007F8D1204738F387F8B1204738F397F89BA
:100384001204381204768F3A7F87120438120476E6
:100394008F3B7F851204381204768F3C7F831204CE
:1003A400381204768F3D7F811204381204768F3E12
:0103B4002226
:0A040E0075F00A842413F8E6F58067
:10041800E4FDFCC3ED9FEC9E5015E4FBFA0BBB001A
:0F042800010AEB640A4A70F50DBD00010C80E477
:0104370022A2
:060198008F418D42A90316
:10019E00900000E4F5A0E975F00A84741325F0F8D8
:1001AE00E6F5807F017E0012041875A004E91204A2
:1001BE000E75A00875804012041875A00CE54275E6
:1001CE00F00A84741325F012041475A010E542127F
:1001DE00040E75A01475804012041875A018E54120
:1001EE0075F00A84741325F012041475A01CE541F1
:0C01FE0012040EA3E582643C4583709758
:01020A0022D1
:03000B000203E30A
:1003E300C0E0C0D00512E51270020511C3943DE5CB
:1003F300119400401175110075120074019509F5EF
:0B04030009E49508F508D0D0D0E032E5
:030003000202CE28
:1002CE00C0E0C0F0C083C082C0D075D000C000C0F6
:1002DE0001C002C003C004C005C006C007AB10AD0C
:1002EE000FAF0E1201987524007525017526007545
:1002FE002700752800752900D007D006D005D00438
:10030E00D003D002D001D000D0D0D082D083D0F094
:03031E00D0E032FA
:03001300020321C4
:10032100C0E0C0F0C083C082C0D075D000C000C0A2
:1003310001C002C003C004C005C006C007AB0AADBE
:100341000CAF0D12019875260075270175240075F3
:100351002500752800752900D007D006D005D004E6
:10036100D003D002D001D000D0D0D082D083D0F041
:03037100D0E032A7
:10026D00752A17752C0A752D02752E0C752F38757C
:10027D00300C78387C007D007B007A00792A7E0076
:10028D007F071200E612020B758901E4F58CF58AE1
:10029D00D2A9D2AFD28CD2AFD2A8C288D2AAC28AEA
:1002AD0078387C007D007B007A0079317E007F07F5
:1002BD001200E6120374AB37AD36AF3512019880DC
:0102CD00DF51
:1001180002026DE493A3F8E493A34003F68001F28E
:1001280008DFF48029E493A3F85407240CC8C333E8
:10013800C4540F4420C8834004F456800146F6DFB7
:10014800E4800B01020408102040809003B5E47E8F
:10015800019360BCA3FF543F30E509541FFEE493AC
:10016800A360010ECF54C025E060A840B8E493A373
:10017800FAE493A3F8E493A3C8C582C8CAC583CA9E
:10018800F0A3C8C582C8CAC583CADFE9DEE780BE56
:0103E200001A
:10001600E709F608DFFA8046E709F208DFFA803ECC
:1000260088828C83E709F0A3DFFA8032E309F608B9
:10003600DFFA8078E309F208DFFA807088828C8321
:10004600E309F0A3DFFA806489828A83E0A3F608D5
:10005600DFFA805889828A83E0A3F208DFFA804CAF
:1000660080D280FA80C680D4806980F28033801086
:1000760080A680EA809A80A880DA80E280CA8033EF
:1000860089828A83ECFAE493A3C8C582C8CCC58367
:10009600CCF0A3C8C582C8CCC583CCDFE9DEE78037
:1000A6000D89828A83E493A3F608DFF9ECFAA9F0B6
:1000B600EDFB2289828A83ECFAE0A3C8C582C8CC0C
:1000C600C583CCF0A3C8C582C8CCC583CCDFEADE25
:1000D600E880DB89828A83E493A3F208DFF980CC87
:1000E60088F0EF60010E4E60C388F0ED2402B40480
:1000F6000050B9F582EB2402B4040050AF23234527
:06010600822390006673E5
:00000001FF
