:030000000209AC46
:0C09AC00787FE4F6D8FD7581120209F393
:100A8800040A00000000040F000000000109000132
:020A98000E004E
:03000B00020A5C8A
:100A5C00C0E0C0D0E509C3943250020509758CFC86
:080A6C00758A67D0D0D0E0329A
:0300030002090DE2
:10090D00C0E0C0D075D000C000C001C004C005C09B
:10091D0006C007850908750900758CFC758A670581
:10092D000EE508C394324011750EFE750D00750C61
:10093D0000750B00750A008055C3E50E6480948028
:10094D004034E50E648094A0502CE508C394024019
:10095D003DE47F01FEFDFC741F950EF9F8120A4966
:10096D00E50D4FF50DE50C4EF50CE50B4DF50BE5D5
:10097D000A4CF50A8018C3E50E648094A0400F85DB
:10098D000D12850C11850B10850A0F750E00D00701
:0F099D00D006D005D004D001D000D0D0D0E032A9
:100A7400438901758CFC758A67D28CD2A9D288D23D
:040A8400A8D2AF2223
:10080000120A74E4FFFEFDFCAB12AA11A910A80F96
:10081000C3120A3860ED7FCF7E307DFF7C00A80FC9
:10082000C3120A38700975A01C7580060209007F82
:10083000E77E187DFF7C00AB12AA11A910A80FC398
:10084000120A38700975A01875805B0209007F854F
:100850007E7A7DFF7C00AB12AA11A910A80FC312EB
:100860000A38700975A01475804F0209007FEF7E69
:10087000107DFF7C00AB12AA11A910A80FC3120AA9
:1008800038700875A01075806680757FC77E387DCA
:10089000FF7C00AB12AA11A910A80FC3120A38706E
:1008A0000875A00C75806D80577FA57E5A7DFF7CF2
:1008B00000AB12AA11A910A80FC3120A387008754C
:1008C000A00875807D80397FBD7E427DFF7C00ABB6
:1008D00012AA11A910A80FC3120A38700875A00433
:1008E000758007801B7FB57E4A7DFF7C00AB12AA16
:1008F00011A910A80FC3120A387005F5A075807FE2
:0D090000E4751201F511F510F50F02080362
:1009B800020800E493A3F8E493A34003F68001F24D
:1009C80008DFF48029E493A3F85407240CC8C33340
:1009D800C4540F4420C8834004F456800146F6DF0F
:1009E800E4800B0102040810204080900A88E47E0D
:1009F800019360BCA3FF543F30E509541FFEE49304
:100A0800A360010ECF54C025E060A840B8E493A3CA
:100A1800FAE493A3F8E493A3C8C582C8CAC583CAF5
:100A2800F0A3C8C582C8CAC583CADFE9DEE780BEAD
:010A9A00005B
:100A3800EB9FF5F0EA9E42F0E99D42F0E89C45F014
:010A4800228B
:100A4900E8600FEFC333FFEE33FEED33FDEC33FC0B
:030A5900D8F122AF
:00000001FF
