:03000000020003F8
:0C000300787FE4F6D8FD75810B02004AFE
:0400F600020A0001F9
:10008F0020B231E50B6401450A7029F5A0C3049530
:10009F000BF50BE4950AF50AE4F508F509C3E50934
:1000AF0094E8E5086480948350D60509E50970ED5E
:1000BF00050880E920B2C9E50B450A70C375A0FF9A
:1000CF00C304950BF50BE4950AF50AE4F508F50959
:1000DF00C3E50994E8E5086480948350A30509E516
:0700EF000970ED050880E92E
:10000F0002008FE493A3F8E493A34003F68001F278
:10001F0008DFF48029E493A3F85407240CC8C333F2
:10002F00C4540F4420C8834004F456800146F6DFC1
:10003F00E4800B01020408102040809000F6E47E5B
:10004F00019360BCA3FF543F30E509541FFEE493B6
:10005F00A360010ECF54C025E060A840B8E493A37D
:10006F00FAE493A3F8E493A3C8C582C8CAC583CAA8
:10007F00F0A3C8C582C8CAC583CADFE9DEE780BE60
:0100FA000005
:00000001FF
