:0300000002031ADE
:0C031A00787FE4F6D8FD7581380203619D
:1003A6007FBFDFEFF7FBFDFE007E427E0000007E92
:1003B600005E52720052527E0070107E0072525ED3
:1003C600007E525E0040407E007E527E0072527E6B
:1003D600000008083E080800000008080808000099
:0803E6000000141414140000BF
:100456002020080000044C04B0051400010002002E
:1004660003000A000400050006000A000700080051
:0304760009000A70
:1003EE0025E025E024AEF582E43403F583E582258D
:1003FE0036F582E43583F583E493FF1204307F01F2
:02040E007E006E
:10041000E4FDFCC3ED9FEC9E5015E4FBFA0BBB0022
:0F042000010AEB64794A70F50DBD00010C80E410
:01042F0022AA
:1002820075900F7F027E00120410E590640F7003D8
:10029200020312900000AF82EF2404FFF8740108F9
:1002A2008002C333D8FCF4F59012040CE4FDFCAFD9
:1002B200057E007401A807088005C333CE33CED86B
:1002C200F9FFAB90EF5B7034AF057E007401A807B5
:1002D200088005C333CE33CED8F9FFAB90EF5B6015
:1002E200E775900FAF82EF75F008A42408F8C37485
:1002F200039D25E028F8E6FE08E6FF220DBD000179
:100302000CED64044C70A8A3E582640445837086F6
:0703120075900F7E057F7856
:0103190022C1
:10043000C2B6C2B5E4FEEFC4131313540124FF92F5
:10044000B4EF25E0FFD2B60000C2B60EBE08E7D278
:05045000B50000C2B57B
:010455002284
:0400FB008E348F357B
:1000FF00C3E5359464E534648094805067E4F53744
:10010F00F538E4F536E4FF120430E5369003A69394
:10011F00F580AE34AF357C007D0A1201F7EF120384
:10012F00EE0536E536C3940440DBE4F536E4FF1202
:10013F000430E5369003AA93F580AE34AF357C00DA
:10014F007D0A1201F7ED1203EE0536E536C394046E
:10015F0040DB0538E53870020537C3940AE537945C
:10016F0000409F22D3E53594E8E5346480948340C2
:10017F0064AE34AF357C007D641201F7EF24F5F5E2
:10018F0035EE34FFF534E4F537F538E4F536E4FFB2
:10019F00120430C374079536FFE49400FE74A62F43
:1001AF00F58274033EF583E493F580E53575F00829
:1001BF00A424D6F582E434031203F90536E536C3D9
:1001CF00940840CA0538E53870020537C3941EE518
:0501DF0037940040B65A
:0101E40022F8
:10000300E4F532F533F52AF52BF530F5310200BD71
:100013001202828E288F29C3E5299478E52864800B
:10002300948550ECE529B41437E528B40532E5335B
:100033004532700EE52D2531F531E52C3530F5309F
:10004300800DC3E531952DF531E530952CF530E57F
:1000530090B40F09AF31AE301200FB80F2E4805A46
:10006300C3E529940AE528648094805024AE2CAF1C
:100073002D7C007D0A1201E5E5292FF52DE5283EAB
:10008300F52CE590640F7088AF2DAE2C1200FB8029
:10009300F1E529B44C2BE528B40426E590B40F0907
:1000A300AF29AE281200FB80F2E52D2531F531E5AD
:1000B3002C3530F530E4F532F533F52CF52D02000F
:1000C30013E52964B07004E5286404600302001397
:1000D300E590B40F09AF29AE281200FB80F2E52D9D
:1000E3002531F531E52C3530F530753200753301A6
:0800F300E4F52CF52D020013C9
:10032600020003E493A3F8E493A34003F68001F2EA
:1003360008DFF48029E493A3F85407240CC8C333D8
:10034600C4540F4420C8834004F456800146F6DFA7
:10035600E4800B0102040810204080900456E47EDD
:10036600019360BCA3FF543F30E509541FFEE4939C
:10037600A360010ECF54C025E060A840B8E493A363
:10038600FAE493A3F8E493A3C8C582C8CAC583CA8E
:10039600F0A3C8C582C8CAC583CADFE9DEE780BE46
:010479000082
:1001E500EF8DF0A4A8F0CF8CF0A428CE8DF0A42E2E
:0201F500FE22E8
:1001F700C2D5EC30E709B2D5E4C39DFDE49CFCEE23
:1002070030E715B2D5E4C39FFFE49EFE12022DC36B
:10021700E49DFDE49CFC800312022D30D507C3E466
:060227009FFFE49EFE2291
:10022D00BC000BBE0029EF8DF084FFADF022E4CCB5
:10023D00F875F008EF2FFFEE33FEEC33FCEE9DEC7E
:10024D00984005FCEE9DFE0FD5F0E9E4CEFD22EDC4
:10025D00F8F5F0EE8420D21CFEADF075F008EF2F0E
:10026D00FFED33FD4007985006D5F0F222C398FDFF
:05027D000FD5F0EA229C
:00000001FF
